:100000000C9436000C94EE000C944B000C944B00B6
:100010000C944B000C944B000C944B000C944B0034
:100020000C944B000C944B000C944B000C944B0024
:100030000C944B000C944B000C944B000C944B0014
:100040000C944B000C944B000C944B000C944B0004
:100050000C944B000C944B000C944B000C944B00F4
:100060000C944B000C944B000C944B0011241FBEBD
:10007000CFEFD4E0DEBFCDBF11E0A0E0B1E0E6E01D
:10008000F4E002C005900D92A834B107D9F70E94A0
:10009000E8010C9401020C940000ECEBF0E01082FB
:1000A00094EA908390819923ECF79091B900987F1E
:1000B0009830A1F48093BB0084E88093BC00ECEB03
:1000C000F0E080818823ECF79091B900987F983117
:1000D00039F081E0903429F480E0089581E00895BA
:1000E00080E008958093BB0081E88093BC00ECEB36
:1000F000F0E080818823ECF79091B900987F81E04F
:10010000983209F480E0089584EC8093BC00ECEB15
:10011000F0E080818823ECF78091BB00089584E8AB
:100120008093BC00ECEBF0E080818823ECF78091B9
:10013000BB000895CF93DF93C82FD62F8EED0E947A
:100140004D008D2F0E9472008C2F0E94720084E956
:100150008093BC00DF91CF9108951F93CF93DF93DD
:10016000EC01162F8FED0E944D00812F0E9472002E
:100170000E94840088830E948F0084E98093BC00E1
:10018000DF91CF911F91089567E080E10E949A006E
:100190006AE080E00E949A006DE080E80E949A0088
:1001A00066E080E10E949A0065E083E00E949A0088
:1001B00064E081E00E949A0062E089E00E949A0077
:1001C00061E080E00E949A0060E080EB0E949A006B
:1001D00008956DE080E80E949A0008951F920F92A2
:1001E0000FB60F921124DF92EF92FF920F931F939D
:1001F0002F933F934F935F936F937F938F939F932F
:10020000AF93BF93EF93FF93CF93DF931F92CDB73D
:10021000DEB780E090E00E94EB01182F61E0CE0194
:1002200001960E94AD008981082F007706950695FA
:100230000695902F990F990F090F8F70080F8BEA71
:10024000089F812D112482958F7098E1899F001954
:100250001124802F880F080F1130A9F018F01230E8
:1002600031F138C010E0C80101960E94EB01E82E80
:10027000C80102960E94EB01F82EC80103960E9465
:10028000EB01D82E27C010E0C801885B9F4F0E9469
:10029000EB01E82EC801875B9F4F0E94EB01F82E0F
:1002A000C801865B9F4F0E94EB01D82E13C010E05F
:1002B000C8018C569F4F0E94EB01E82EC8018B5657
:1002C0009F4F0E94EB01F82EC8018A569F4F0E9453
:1002D000EB01D82EE7BC8D2D90E0909389008093A0
:1002E00088008F2D90E090938B0080938A000F9070
:1002F000DF91CF91FF91EF91BF91AF919F918F913E
:100300007F916F915F914F913F912F911F910F912D
:10031000FF90EF90DF900F900FBE0F901F901895F9
:10032000EF92FF920F931F93CF93DF93CDB7DEB77A
:10033000C854D1090FB6F894DEBF0FBECDBF88E414
:10034000E0E0F1E0DE01119601900D928A95E1F76F
:100350008DEF8093B8000E94C4000E94E900E9E696
:10036000F0E0808183608083E89A60E080E090E044
:100370000E94F3018E010F5F1F4F7E0189E4E80E9A
:10038000F11CF80161918F0181E090E00E94F3017E
:100390000E151F05B1F78EE084B980E48AB987E0B5
:1003A00084BD15BC80938000109281008093B000C2
:1003B0001092B100C85BDF4F0FB6F894DEBF0FBEDE
:1003C000CDBFDF91CF911F910F91FF90EF900895D6
:1003D0000E949001FFCFF999FECF92BD81BDF89A9E
:1003E000992780B50895262FF999FECF1FBA92BD9F
:1003F00081BD20BD0FB6F894FA9AF99A0FBE019606
:060400000895F894FFCFFF
:1004060000FF00EB78E62511AE2D15186A4BC9479B
:10041600BBCE00FF00EB78E62511AE2D15186A4B12
:10042600C947BBCE00FF00EB78E62511AE2D1518A7
:100436006A4BC947BBCE00FF00EB78E62511AE2D0F
:0804460015186A4BC947BBCE33
:00000001FF
